{
  "contracts/GiftChain.sol": {
    "GiftChain": {
      "abi": [
        {
          "inputs": [
            {
              "internalType": "address",
              "name": "_relayer",
              "type": "address"
            }
          ],
          "stateMutability": "nonpayable",
          "type": "constructor"
        },
        {
          "inputs": [],
          "name": "ARRAY_LENGTH_MISMATCH",
          "type": "error"
        },
        {
          "inputs": [],
          "name": "BULK_CREATION_FAILED",
          "type": "error"
        },
        {
          "inputs": [],
          "name": "BULK_CREATION_MUST_BE_AT_LEAST_5",
          "type": "error"
        },
        {
          "inputs": [],
          "name": "CARD_ALREADY_EXIST",
          "type": "error"
        },
        {
          "inputs": [],
          "name": "CREATOR_CANNOT_CLAIM_GIFT",
          "type": "error"
        },
        {
          "inputs": [],
          "name": "CREATOR_MISMATCH",
          "type": "error"
        },
        {
          "inputs": [],
          "name": "EXPECT_3_TO_50_MESSAGE_CHARACTER",
          "type": "error"
        },
        {
          "inputs": [],
          "name": "EXPIRY_CAN_ONLY_BE_IN_FUTURE",
          "type": "error"
        },
        {
          "inputs": [],
          "name": "GIFT_CLAIMED",
          "type": "error"
        },
        {
          "inputs": [],
          "name": "GIFT_EXPIRED",
          "type": "error"
        },
        {
          "inputs": [],
          "name": "GIFT_NOT_CLAIMABLE",
          "type": "error"
        },
        {
          "inputs": [],
          "name": "GIFT_NOT_EXPIRED_YET",
          "type": "error"
        },
        {
          "inputs": [],
          "name": "GiftAlreadyReclaimed",
          "type": "error"
        },
        {
          "inputs": [],
          "name": "GiftAlreadyRedeemed",
          "type": "error"
        },
        {
          "inputs": [],
          "name": "GiftNotFound",
          "type": "error"
        },
        {
          "inputs": [],
          "name": "INVALID_ADDRESS",
          "type": "error"
        },
        {
          "inputs": [],
          "name": "INVALID_AMOUNT",
          "type": "error"
        },
        {
          "inputs": [],
          "name": "INVALID_GIFTID",
          "type": "error"
        },
        {
          "inputs": [],
          "name": "NOT_AUTHORIZE_TO_RECLAIM_GIFT",
          "type": "error"
        },
        {
          "inputs": [],
          "name": "ONLY_CONTRACT_HAS_ACCESS",
          "type": "error"
        },
        {
          "inputs": [],
          "name": "ONLY_RELAYER_HAS_ACCESS",
          "type": "error"
        },
        {
          "inputs": [],
          "name": "ReentrancyGuardReentrantCall",
          "type": "error"
        },
        {
          "inputs": [
            {
              "internalType": "address",
              "name": "token",
              "type": "address"
            }
          ],
          "name": "SafeERC20FailedOperation",
          "type": "error"
        },
        {
          "inputs": [],
          "name": "TRANSFER_FAILED",
          "type": "error"
        },
        {
          "anonymous": false,
          "inputs": [
            {
              "indexed": true,
              "internalType": "bytes32",
              "name": "giftID",
              "type": "bytes32"
            },
            {
              "indexed": true,
              "internalType": "address",
              "name": "recipient",
              "type": "address"
            },
            {
              "indexed": false,
              "internalType": "uint256",
              "name": "amount",
              "type": "uint256"
            },
            {
              "indexed": false,
              "internalType": "string",
              "name": "status",
              "type": "string"
            }
          ],
          "name": "GiftClaimed",
          "type": "event"
        },
        {
          "anonymous": false,
          "inputs": [
            {
              "indexed": true,
              "internalType": "bytes32",
              "name": "giftID",
              "type": "bytes32"
            },
            {
              "indexed": true,
              "internalType": "bytes32",
              "name": "creator",
              "type": "bytes32"
            },
            {
              "indexed": true,
              "internalType": "address",
              "name": "token",
              "type": "address"
            },
            {
              "indexed": false,
              "internalType": "string",
              "name": "message",
              "type": "string"
            },
            {
              "indexed": false,
              "internalType": "uint256",
              "name": "amount",
              "type": "uint256"
            },
            {
              "indexed": false,
              "internalType": "uint256",
              "name": "expiry",
              "type": "uint256"
            },
            {
              "indexed": false,
              "internalType": "uint256",
              "name": "timeCreated",
              "type": "uint256"
            },
            {
              "indexed": false,
              "internalType": "string",
              "name": "status",
              "type": "string"
            }
          ],
          "name": "GiftCreated",
          "type": "event"
        },
        {
          "anonymous": false,
          "inputs": [
            {
              "indexed": true,
              "internalType": "bytes32",
              "name": "giftID",
              "type": "bytes32"
            },
            {
              "indexed": true,
              "internalType": "address",
              "name": "recipient",
              "type": "address"
            },
            {
              "indexed": false,
              "internalType": "uint256",
              "name": "amount",
              "type": "uint256"
            },
            {
              "indexed": false,
              "internalType": "string",
              "name": "status",
              "type": "string"
            }
          ],
          "name": "GiftReclaimed",
          "type": "event"
        },
        {
          "inputs": [
            {
              "internalType": "address",
              "name": "_token",
              "type": "address"
            },
            {
              "internalType": "uint256[]",
              "name": "_amounts",
              "type": "uint256[]"
            },
            {
              "internalType": "uint256[]",
              "name": "_expiries",
              "type": "uint256[]"
            },
            {
              "internalType": "string[]",
              "name": "_messages",
              "type": "string[]"
            },
            {
              "internalType": "bytes32[]",
              "name": "_giftIDs",
              "type": "bytes32[]"
            },
            {
              "internalType": "bytes32",
              "name": "_creator",
              "type": "bytes32"
            }
          ],
          "name": "_createBulkGifts",
          "outputs": [],
          "stateMutability": "nonpayable",
          "type": "function"
        },
        {
          "inputs": [
            {
              "internalType": "bytes32",
              "name": "giftID",
              "type": "bytes32"
            }
          ],
          "name": "claimGift",
          "outputs": [],
          "stateMutability": "nonpayable",
          "type": "function"
        },
        {
          "inputs": [
            {
              "internalType": "address",
              "name": "_token",
              "type": "address"
            },
            {
              "internalType": "uint256[]",
              "name": "_amounts",
              "type": "uint256[]"
            },
            {
              "internalType": "uint256[]",
              "name": "_expiries",
              "type": "uint256[]"
            },
            {
              "internalType": "string[]",
              "name": "_messages",
              "type": "string[]"
            },
            {
              "internalType": "bytes32[]",
              "name": "_giftIDs",
              "type": "bytes32[]"
            },
            {
              "internalType": "bytes32",
              "name": "_creator",
              "type": "bytes32"
            }
          ],
          "name": "createBulkGifts",
          "outputs": [],
          "stateMutability": "nonpayable",
          "type": "function"
        },
        {
          "inputs": [
            {
              "internalType": "address",
              "name": "_token",
              "type": "address"
            },
            {
              "internalType": "uint256",
              "name": "_amount",
              "type": "uint256"
            },
            {
              "internalType": "uint256",
              "name": "_expiry",
              "type": "uint256"
            },
            {
              "internalType": "string",
              "name": "_message",
              "type": "string"
            },
            {
              "internalType": "bytes32",
              "name": "_giftID",
              "type": "bytes32"
            },
            {
              "internalType": "bytes32",
              "name": "_creator",
              "type": "bytes32"
            }
          ],
          "name": "createGift",
          "outputs": [],
          "stateMutability": "nonpayable",
          "type": "function"
        },
        {
          "inputs": [
            {
              "internalType": "bytes32",
              "name": "",
              "type": "bytes32"
            }
          ],
          "name": "gifts",
          "outputs": [
            {
              "internalType": "address",
              "name": "token",
              "type": "address"
            },
            {
              "internalType": "bool",
              "name": "claimed",
              "type": "bool"
            },
            {
              "internalType": "uint256",
              "name": "expiry",
              "type": "uint256"
            },
            {
              "internalType": "uint256",
              "name": "timeCreated",
              "type": "uint256"
            },
            {
              "internalType": "uint256",
              "name": "amount",
              "type": "uint256"
            },
            {
              "internalType": "string",
              "name": "message",
              "type": "string"
            },
            {
              "internalType": "enum GiftChain.Status",
              "name": "status",
              "type": "uint8"
            },
            {
              "internalType": "bytes32",
              "name": "creator",
              "type": "bytes32"
            }
          ],
          "stateMutability": "view",
          "type": "function"
        },
        {
          "inputs": [
            {
              "internalType": "bytes32",
              "name": "giftID",
              "type": "bytes32"
            }
          ],
          "name": "reclaimGift",
          "outputs": [],
          "stateMutability": "nonpayable",
          "type": "function"
        },
        {
          "inputs": [
            {
              "internalType": "bytes32",
              "name": "giftID",
              "type": "bytes32"
            }
          ],
          "name": "validateGift",
          "outputs": [
            {
              "internalType": "bool",
              "name": "isValid",
              "type": "bool"
            },
            {
              "internalType": "string",
              "name": "message",
              "type": "string"
            }
          ],
          "stateMutability": "view",
          "type": "function"
        }
      ],
      "evm": {
        "bytecode": {
          "linkReferences": {},
          "object": "6080604052348015600f57600080fd5b50604051611acf380380611acf833981016040819052602c916055565b6001600081905580546001600160a01b0319166001600160a01b03929092169190911790556083565b600060208284031215606657600080fd5b81516001600160a01b0381168114607c57600080fd5b9392505050565b611a3d806100926000396000f3fe608060405234801561001057600080fd5b506004361061007d5760003560e01c8063b0a1ae001161005b578063b0a1ae00146100d4578063da138e12146100e7578063ec2de8c11461010e578063fd7a1e0b1461012157600080fd5b8063957b8610146100825780639617cff5146100ac5780639e85dad9146100c1575b600080fd5b610095610090366004611283565b610134565b6040516100a39291906112e2565b60405180910390f35b6100bf6100ba366004611283565b6103de565b005b6100bf6100cf36600461136d565b6105a1565b6100bf6100e236600461136d565b610965565b6100fa6100f5366004611283565b610c20565b6040516100a3989796959493929190611477565b6100bf61011c366004611283565b610cfc565b6100bf61012f366004611500565b610ec0565b600081815260026020818152604080842081516101008101835281546001600160a01b0381168252600160a01b900460ff1615159381019390935260018101549183019190915291820154606080830191909152600383015460808301526004830180549193859392909160a08401916101ad906115ef565b80601f01602080910402602001604051908101604052809291908181526020018280546101d9906115ef565b80156102265780601f106101fb57610100808354040283529160200191610226565b820191906000526020600020905b81548152906001019060200180831161020957829003601f168201915b5050509183525050600582015460209091019060ff16600381111561024d5761024d611461565b600381111561025e5761025e611461565b81526006919091015460209091015280519091506001600160a01b03166102b25760006040518060400160405280600e81526020016d11da599d081b9bdd08199bdd5b9960921b8152509250925050915091565b60028160c0015160038111156102ca576102ca611461565b036103085760006040518060400160405280601481526020017311da599d08185b1c9958591e4818db185a5b595960621b8152509250925050915091565b60038160c00151600381111561032057610320611461565b036103585760006040518060400160405280600e81526020016d11da599d081c9958db185a5b595960921b8152509250925050915091565b60018160c00151600381111561037057610370611461565b146103af5760006040518060400160405280601581526020017411da599d08185b1c9958591e481c995919595b5959605a1b8152509250925050915091565b60016040518060400160405280600a81526020016915985b1a590819da599d60b21b8152509250925050915091565b6103e6611187565b600081815260026020526040902080546001600160a01b031661041c57604051631862cfe960e01b815260040160405180910390fd5b806003015460000361044157604051637151516360e11b815260040160405180910390fd5b6001600582015460ff16600381111561045c5761045c611461565b1461047a5760405163095a27af60e21b815260040160405180910390fd5b428160010154101561049f5760405163e588b00760e01b815260040160405180910390fd5b6040516001600160601b03193360601b166020820152603401604051602081830303815290604052805190602001208160060154036104f157604051630130f5ad60e31b815260040160405180910390fd5b60058101805460ff191660021790558054600160a01b60ff60a01b198216178255600382015461052c916001600160a01b03169033906111b1565b336001600160a01b0316827f5fa3f9e7544621698efa9f5cc7b1671d9b5c3c6cf35527e0553e77fa0faa67f8836003015460405161058b9181526040602082018190526007908201526610d3105253515160ca1b606082015260800190565b60405180910390a35061059e6001600055565b50565b3330146105c157604051633f04a41560e01b815260040160405180910390fd5b60005b8881101561095857428888838181106105df576105df611629565b9050602002013511610604576040516304e9683960e21b815260040160405180910390fd5b600386868381811061061857610618611629565b905060200281019061062a919061163f565b9050108061065d5750603286868381811061064757610647611629565b9050602002810190610659919061163f565b9050115b1561067b5760405163312181a360e21b815260040160405180910390fd5b6002600085858481811061069157610691611629565b905060200201358152602001908152602001600020600201546000146106ca5760405163012163ef60e11b815260040160405180910390fd5b8989828181106106dc576106dc611629565b90506020020135600360008481526020019081526020016000206000828254610705919061169c565b909155505060408051610100810182526001600160a01b038d1681526000602082015290810189898481811061073d5761073d611629565b9050602002013581526020014281526020018b8b8481811061076157610761611629565b90506020020135815260200187878481811061077f5761077f611629565b9050602002810190610791919061163f565b8080601f01602080910402602001604051908101604052809392919081815260200183838082843760009201919091525050509082525060200160018152602001839052600260008686858181106107eb576107eb611629565b6020908102929092013583525081810192909252604090810160002083518154938501511515600160a01b026001600160a81b03199094166001600160a01b03909116179290921782558201516001820155606082015160028201556080820151600382015560a082015160048201906108659082611703565b5060c082015160058201805460ff1916600183600381111561088957610889611461565b021790555060e082015181600601559050508a6001600160a01b0316828585848181106108b8576108b8611629565b905060200201357ffc007ae3f08ac6d013bf8e2d0783d44a7f8ed16433190293618d9ee28f734aed8989868181106108f2576108f2611629565b9050602002810190610904919061163f565b8f8f8881811061091657610916611629565b905060200201358e8e8981811061092f5761092f611629565b90506020020135426040516109489594939291906117eb565b60405180910390a46001016105c4565b5050505050505050505050565b60058810156109875760405163433f120b60e01b815260040160405180910390fd5b87861415806109965750878414155b806109a15750878214155b156109bf57604051634456f5e960e11b815260040160405180910390fd5b6040516001600160601b03193360601b16602082015281906034016040516020818303038152906040528051906020012014610a0e57604051630617762360e51b815260040160405180910390fd5b6001600160a01b038a16610a3557604051635963709b60e01b815260040160405180910390fd5b896000805b8a811015610aa95760008c8c83818110610a5657610a56611629565b9050602002013511610a7b5760405163fae8279160e01b815260040160405180910390fd5b8b8b82818110610a8d57610a8d611629565b9050602002013582610a9f9190611843565b9150600101610a3a565b506040516323b872dd60e01b8152336004820152306024820152604481018290526001600160a01b038316906323b872dd906064016020604051808303816000875af1158015610afd573d6000803e3d6000fd5b505050506040513d601f19601f82011682018060405250810190610b219190611856565b610b3e57604051631fa55c0760e11b815260040160405180910390fd5b6000838152600360205260409081902082905551639e85dad960e01b81523090639e85dad990610b84908f908f908f908f908f908f908f908f908f908f906004016118b1565b600060405180830381600087803b158015610b9e57600080fd5b505af1925050508015610baf575060015b610c04576000838152600360205260409020548015610beb57600084815260036020526040812055610beb6001600160a01b03841633836111b1565b6040516303f777b760e21b815260040160405180910390fd5b5050600090815260036020526040812055505050505050505050565b6002602081905260009182526040909120805460018201549282015460038301546004840180546001600160a01b03851696600160a01b90950460ff16959190610c69906115ef565b80601f0160208091040260200160405190810160405280929190818152602001828054610c95906115ef565b8015610ce25780601f10610cb757610100808354040283529160200191610ce2565b820191906000526020600020905b815481529060010190602001808311610cc557829003601f168201915b505050506005830154600690930154919260ff1691905088565b610d04611187565b600081815260026020526040902080546001600160a01b0316610d3a57604051630615b0ed60e41b815260040160405180910390fd5b60068101546040516001600160601b03193360601b1660208201526034016040516020818303038152906040528051906020012014610d8c57604051633c68288f60e01b815260040160405180910390fd5b6002600582015460ff166003811115610da757610da7611461565b03610dc5576040516388e8ca6560e01b815260040160405180910390fd5b6003600582015460ff166003811115610de057610de0611461565b03610dfe57604051631102656960e11b815260040160405180910390fd5b80600101544211610e22576040516308dbecb960e11b815260040160405180910390fd5b60058101805460ff191660039081179091558154600160a01b60ff60a01b19821617835590820154610e5f916001600160a01b03169033906111b1565b336001600160a01b0316827f285a507b21ee662f44aa4ce8b5b57ed14c3beecede75c04bea30e8ce14a2e776836003015460405161058b91815260406020820181905260099082015268149150d3105253515160ba1b606082015260800190565b6001546001600160a01b03163314610eeb5760405163984ab90960e01b815260040160405180910390fd5b6001600160a01b038616610f1257604051635963709b60e01b815260040160405180910390fd5b60008511610f335760405163fae8279160e01b815260040160405180910390fd5b428411610f53576040516304e9683960e21b815260040160405180910390fd5b600383511080610f64575060328351115b15610f825760405163312181a360e21b815260040160405180910390fd5b6000828152600260208190526040909120015415610fb35760405163012163ef60e11b815260040160405180910390fd5b6040516323b872dd60e01b81523360048201523060248201526044810186905286906001600160a01b038216906323b872dd906064016020604051808303816000875af1158015611008573d6000803e3d6000fd5b505050506040513d601f19601f8201168201806040525081019061102c9190611856565b61104957604051631fa55c0760e11b815260040160405180910390fd5b60408051610100810182526001600160a01b0389168152600060208201529081018690524260608201526080810187905260a0810185905260c081016001815260209081018490526000858152600280835260409182902084518154948601511515600160a01b026001600160a81b03199095166001600160a01b03909116179390931783559083015160018301556060830151908201556080820151600382015560a082015160048201906110ff9082611703565b5060c082015160058201805460ff1916600183600381111561112357611123611461565b021790555060e08201518160060155905050866001600160a01b031682847ffc007ae3f08ac6d013bf8e2d0783d44a7f8ed16433190293618d9ee28f734aed878a8a4260405161117694939291906119b1565b60405180910390a450505050505050565b6002600054036111aa57604051633ee5aeb560e01b815260040160405180910390fd5b6002600055565b604080516001600160a01b038416602482015260448082018490528251808303909101815260649091019091526020810180516001600160e01b031663a9059cbb60e01b179052611203908490611208565b505050565b600080602060008451602086016000885af18061122b576040513d6000823e3d81fd5b50506000513d91508115611243578060011415611250565b6001600160a01b0384163b155b1561127d57604051635274afe760e01b81526001600160a01b038516600482015260240160405180910390fd5b50505050565b60006020828403121561129557600080fd5b5035919050565b6000815180845260005b818110156112c2576020818501810151868301820152016112a6565b506000602082860101526020601f19601f83011685010191505092915050565b82151581526040602082015260006112fd604083018461129c565b949350505050565b80356001600160a01b038116811461131c57600080fd5b919050565b60008083601f84011261133357600080fd5b50813567ffffffffffffffff81111561134b57600080fd5b6020830191508360208260051b850101111561136657600080fd5b9250929050565b60008060008060008060008060008060c08b8d03121561138c57600080fd5b6113958b611305565b995060208b013567ffffffffffffffff8111156113b157600080fd5b6113bd8d828e01611321565b909a5098505060408b013567ffffffffffffffff8111156113dd57600080fd5b6113e98d828e01611321565b90985096505060608b013567ffffffffffffffff81111561140957600080fd5b6114158d828e01611321565b90965094505060808b013567ffffffffffffffff81111561143557600080fd5b6114418d828e01611321565b9b9e9a9d50989b979a96999598949794969560a090950135949350505050565b634e487b7160e01b600052602160045260246000fd5b60018060a01b0389168152871515602082015286604082015285606082015284608082015261010060a082015260006114b461010083018661129c565b9050600484106114d457634e487b7160e01b600052602160045260246000fd5b60c082019390935260e001529695505050505050565b634e487b7160e01b600052604160045260246000fd5b60008060008060008060c0878903121561151957600080fd5b61152287611305565b95506020870135945060408701359350606087013567ffffffffffffffff81111561154c57600080fd5b8701601f8101891361155d57600080fd5b803567ffffffffffffffff811115611577576115776114ea565b604051601f8201601f19908116603f0116810167ffffffffffffffff811182821017156115a6576115a66114ea565b6040528181528282016020018b10156115be57600080fd5b816020840160208301376000918101602001919091529699959850939660808101359560a090910135945092505050565b600181811c9082168061160357607f821691505b60208210810361162357634e487b7160e01b600052602260045260246000fd5b50919050565b634e487b7160e01b600052603260045260246000fd5b6000808335601e1984360301811261165657600080fd5b83018035915067ffffffffffffffff82111561167157600080fd5b60200191503681900382131561136657600080fd5b634e487b7160e01b600052601160045260246000fd5b818103818111156116af576116af611686565b92915050565b601f82111561120357806000526020600020601f840160051c810160208510156116dc5750805b601f840160051c820191505b818110156116fc57600081556001016116e8565b5050505050565b815167ffffffffffffffff81111561171d5761171d6114ea565b6117318161172b84546115ef565b846116b5565b6020601f821160018114611765576000831561174d5750848201515b600019600385901b1c1916600184901b1784556116fc565b600084815260208120601f198516915b828110156117955787850151825560209485019460019092019101611775565b50848210156117b35786840151600019600387901b60f8161c191681555b50505050600190811b01905550565b81835281816020850137506000828201602090810191909152601f909101601f19169091010190565b60a0815260006117ff60a0830187896117c2565b856020840152846040840152836060840152828103608084015261183781600781526650454e44494e4760c81b602082015260400190565b98975050505050505050565b808201808211156116af576116af611686565b60006020828403121561186857600080fd5b8151801515811461187857600080fd5b9392505050565b81835260006001600160fb1b0383111561189857600080fd5b8260051b80836020870137939093016020019392505050565b6001600160a01b038b16815260c0602082018190526000906118d69083018b8d61187f565b82810360408401526118e9818a8c61187f565b83810360608501528781529050602080820190600589901b83010189600036829003601e19015b8b82101561198157858403601f19018552823581811261192f57600080fd5b8d0160208101903567ffffffffffffffff81111561194c57600080fd5b80360382131561195b57600080fd5b6119668682846117c2565b95505050602083019250602085019450600182019150611910565b505050848103608086015261199781888a61187f565b93505050508260a08301529b9a5050505050505050505050565b60a0815260006119c460a083018761129c565b85602084015284604084015283606084015282810360808401526119fc81600781526650454e44494e4760c81b602082015260400190565b97965050505050505056fea264697066735822122082a7f660769b7bbc28e2d6e0a5c7a5765b8420bf52317ac5914480d11d4badf564736f6c634300081c0033",
          "opcodes": "PUSH1 0x80 PUSH1 0x40 MSTORE CALLVALUE DUP1 ISZERO PUSH1 0xF JUMPI PUSH1 0x0 DUP1 REVERT JUMPDEST POP PUSH1 0x40 MLOAD PUSH2 0x1ACF CODESIZE SUB DUP1 PUSH2 0x1ACF DUP4 CODECOPY DUP2 ADD PUSH1 0x40 DUP2 SWAP1 MSTORE PUSH1 0x2C SWAP2 PUSH1 0x55 JUMP JUMPDEST PUSH1 0x1 PUSH1 0x0 DUP2 SWAP1 SSTORE DUP1 SLOAD PUSH1 0x1 PUSH1 0x1 PUSH1 0xA0 SHL SUB NOT AND PUSH1 0x1 PUSH1 0x1 PUSH1 0xA0 SHL SUB SWAP3 SWAP1 SWAP3 AND SWAP2 SWAP1 SWAP2 OR SWAP1 SSTORE PUSH1 0x83 JUMP JUMPDEST PUSH1 0x0 PUSH1 0x20 DUP3 DUP5 SUB SLT ISZERO PUSH1 0x66 JUMPI PUSH1 0x0 DUP1 REVERT JUMPDEST DUP2 MLOAD PUSH1 0x1 PUSH1 0x1 PUSH1 0xA0 SHL SUB DUP2 AND DUP2 EQ PUSH1 0x7C JUMPI PUSH1 0x0 DUP1 REVERT JUMPDEST SWAP4 SWAP3 POP POP POP JUMP JUMPDEST PUSH2 0x1A3D DUP1 PUSH2 0x92 PUSH1 0x0 CODECOPY PUSH1 0x0 RETURN INVALID PUSH1 0x80 PUSH1 0x40 MSTORE CALLVALUE DUP1 ISZERO PUSH2 0x10 JUMPI PUSH1 0x0 DUP1 REVERT JUMPDEST POP PUSH1 0x4 CALLDATASIZE LT PUSH2 0x7D JUMPI PUSH1 0x0 CALLDATALOAD PUSH1 0xE0 SHR DUP1 PUSH4 0xB0A1AE00 GT PUSH2 0x5B JUMPI DUP1 PUSH4 0xB0A1AE00 EQ PUSH2 0xD4 JUMPI DUP1 PUSH4 0xDA138E12 EQ PUSH2 0xE7 JUMPI DUP1 PUSH4 0xEC2DE8C1 EQ PUSH2 0x10E JUMPI DUP1 PUSH4 0xFD7A1E0B EQ PUSH2 0x121 JUMPI PUSH1 0x0 DUP1 REVERT JUMPDEST DUP1 PUSH4 0x957B8610 EQ PUSH2 0x82 JUMPI DUP1 PUSH4 0x9617CFF5 EQ PUSH2 0xAC JUMPI DUP1 PUSH4 0x9E85DAD9 EQ PUSH2 0xC1 JUMPI JUMPDEST PUSH1 0x0 DUP1 REVERT JUMPDEST PUSH2 0x95 PUSH2 0x90 CALLDATASIZE PUSH1 0x4 PUSH2 0x1283 JUMP JUMPDEST PUSH2 0x134 JUMP JUMPDEST PUSH1 0x40 MLOAD PUSH2 0xA3 SWAP3 SWAP2 SWAP1 PUSH2 0x12E2 JUMP JUMPDEST PUSH1 0x40 MLOAD DUP1 SWAP2 SUB SWAP1 RETURN JUMPDEST PUSH2 0xBF PUSH2 0xBA CALLDATASIZE PUSH1 0x4 PUSH2 0x1283 JUMP JUMPDEST PUSH2 0x3DE JUMP JUMPDEST STOP JUMPDEST PUSH2 0xBF PUSH2 0xCF CALLDATASIZE PUSH1 0x4 PUSH2 0x136D JUMP JUMPDEST PUSH2 0x5A1 JUMP JUMPDEST PUSH2 0xBF PUSH2 0xE2 CALLDATASIZE PUSH1 0x4 PUSH2 0x136D JUMP JUMPDEST PUSH2 0x965 JUMP JUMPDEST PUSH2 0xFA PUSH2 0xF5 CALLDATASIZE PUSH1 0x4 PUSH2 0x1283 JUMP JUMPDEST PUSH2 0xC20 JUMP JUMPDEST PUSH1 0x40 MLOAD PUSH2 0xA3 SWAP9 SWAP8 SWAP7 SWAP6 SWAP5 SWAP4 SWAP3 SWAP2 SWAP1 PUSH2 0x1477 JUMP JUMPDEST PUSH2 0xBF PUSH2 0x11C CALLDATASIZE PUSH1 0x4 PUSH2 0x1283 JUMP JUMPDEST PUSH2 0xCFC JUMP JUMPDEST PUSH2 0xBF PUSH2 0x12F CALLDATASIZE PUSH1 0x4 PUSH2 0x1500 JUMP JUMPDEST PUSH2 0xEC0 JUMP JUMPDEST PUSH1 0x0 DUP2 DUP2 MSTORE PUSH1 0x2 PUSH1 0x20 DUP2 DUP2 MSTORE PUSH1 0x40 DUP1 DUP5 KECCAK256 DUP2 MLOAD PUSH2 0x100 DUP2 ADD DUP4 MSTORE DUP2 SLOAD PUSH1 0x1 PUSH1 0x1 PUSH1 0xA0 SHL SUB DUP2 AND DUP3 MSTORE PUSH1 0x1 PUSH1 0xA0 SHL SWAP1 DIV PUSH1 0xFF AND ISZERO ISZERO SWAP4 DUP2 ADD SWAP4 SWAP1 SWAP4 MSTORE PUSH1 0x1 DUP2 ADD SLOAD SWAP2 DUP4 ADD SWAP2 SWAP1 SWAP2 MSTORE SWAP2 DUP3 ADD SLOAD PUSH1 0x60 DUP1 DUP4 ADD SWAP2 SWAP1 SWAP2 MSTORE PUSH1 0x3 DUP4 ADD SLOAD PUSH1 0x80 DUP4 ADD MSTORE PUSH1 0x4 DUP4 ADD DUP1 SLOAD SWAP2 SWAP4 DUP6 SWAP4 SWAP3 SWAP1 SWAP2 PUSH1 0xA0 DUP5 ADD SWAP2 PUSH2 0x1AD SWAP1 PUSH2 0x15EF JUMP JUMPDEST DUP1 PUSH1 0x1F ADD PUSH1 0x20 DUP1 SWAP2 DIV MUL PUSH1 0x20 ADD PUSH1 0x40 MLOAD SWAP1 DUP2 ADD PUSH1 0x40 MSTORE DUP1 SWAP3 SWAP2 SWAP1 DUP2 DUP2 MSTORE PUSH1 0x20 ADD DUP3 DUP1 SLOAD PUSH2 0x1D9 SWAP1 PUSH2 0x15EF JUMP JUMPDEST DUP1 ISZERO PUSH2 0x226 JUMPI DUP1 PUSH1 0x1F LT PUSH2 0x1FB JUMPI PUSH2 0x100 DUP1 DUP4 SLOAD DIV MUL DUP4 MSTORE SWAP2 PUSH1 0x20 ADD SWAP2 PUSH2 0x226 JUMP JUMPDEST DUP3 ADD SWAP2 SWAP1 PUSH1 0x0 MSTORE PUSH1 0x20 PUSH1 0x0 KECCAK256 SWAP1 JUMPDEST DUP2 SLOAD DUP2 MSTORE SWAP1 PUSH1 0x1 ADD SWAP1 PUSH1 0x20 ADD DUP1 DUP4 GT PUSH2 0x209 JUMPI DUP3 SWAP1 SUB PUSH1 0x1F AND DUP3 ADD SWAP2 JUMPDEST POP POP POP SWAP2 DUP4 MSTORE POP POP PUSH1 0x5 DUP3 ADD SLOAD PUSH1 0x20 SWAP1 SWAP2 ADD SWAP1 PUSH1 0xFF AND PUSH1 0x3 DUP2 GT ISZERO PUSH2 0x24D JUMPI PUSH2 0x24D PUSH2 0x1461 JUMP JUMPDEST PUSH1 0x3 DUP2 GT ISZERO PUSH2 0x25E JUMPI PUSH2 0x25E PUSH2 0x1461 JUMP JUMPDEST DUP2 MSTORE PUSH1 0x6 SWAP2 SWAP1 SWAP2 ADD SLOAD PUSH1 0x20 SWAP1 SWAP2 ADD MSTORE DUP1 MLOAD SWAP1 SWAP2 POP PUSH1 0x1 PUSH1 0x1 PUSH1 0xA0 SHL SUB AND PUSH2 0x2B2 JUMPI PUSH1 0x0 PUSH1 0x40 MLOAD DUP1 PUSH1 0x40 ADD PUSH1 0x40 MSTORE DUP1 PUSH1 0xE DUP2 MSTORE PUSH1 0x20 ADD PUSH14 0x11DA599D081B9BDD08199BDD5B99 PUSH1 0x92 SHL DUP2 MSTORE POP SWAP3 POP SWAP3 POP POP SWAP2 POP SWAP2 JUMP JUMPDEST PUSH1 0x2 DUP2 PUSH1 0xC0 ADD MLOAD PUSH1 0x3 DUP2 GT ISZERO PUSH2 0x2CA JUMPI PUSH2 0x2CA PUSH2 0x1461 JUMP JUMPDEST SUB PUSH2 0x308 JUMPI PUSH1 0x0 PUSH1 0x40 MLOAD DUP1 PUSH1 0x40 ADD PUSH1 0x40 MSTORE DUP1 PUSH1 0x14 DUP2 MSTORE PUSH1 0x20 ADD PUSH20 0x11DA599D08185B1C9958591E4818DB185A5B5959 PUSH1 0x62 SHL DUP2 MSTORE POP SWAP3 POP SWAP3 POP POP SWAP2 POP SWAP2 JUMP JUMPDEST PUSH1 0x3 DUP2 PUSH1 0xC0 ADD MLOAD PUSH1 0x3 DUP2 GT ISZERO PUSH2 0x320 JUMPI PUSH2 0x320 PUSH2 0x1461 JUMP JUMPDEST SUB PUSH2 0x358 JUMPI PUSH1 0x0 PUSH1 0x40 MLOAD DUP1 PUSH1 0x40 ADD PUSH1 0x40 MSTORE DUP1 PUSH1 0xE DUP2 MSTORE PUSH1 0x20 ADD PUSH14 0x11DA599D081C9958DB185A5B5959 PUSH1 0x92 SHL DUP2 MSTORE POP SWAP3 POP SWAP3 POP POP SWAP2 POP SWAP2 JUMP JUMPDEST PUSH1 0x1 DUP2 PUSH1 0xC0 ADD MLOAD PUSH1 0x3 DUP2 GT ISZERO PUSH2 0x370 JUMPI PUSH2 0x370 PUSH2 0x1461 JUMP JUMPDEST EQ PUSH2 0x3AF JUMPI PUSH1 0x0 PUSH1 0x40 MLOAD DUP1 PUSH1 0x40 ADD PUSH1 0x40 MSTORE DUP1 PUSH1 0x15 DUP2 MSTORE PUSH1 0x20 ADD PUSH21 0x11DA599D08185B1C9958591E481C995919595B5959 PUSH1 0x5A SHL DUP2 MSTORE POP SWAP3 POP SWAP3 POP POP SWAP2 POP SWAP2 JUMP JUMPDEST PUSH1 0x1 PUSH1 0x40 MLOAD DUP1 PUSH1 0x40 ADD PUSH1 0x40 MSTORE DUP1 PUSH1 0xA DUP2 MSTORE PUSH1 0x20 ADD PUSH10 0x15985B1A590819DA599D PUSH1 0xB2 SHL DUP2 MSTORE POP SWAP3 POP SWAP3 POP POP SWAP2 POP SWAP2 JUMP JUMPDEST PUSH2 0x3E6 PUSH2 0x1187 JUMP JUMPDEST PUSH1 0x0 DUP2 DUP2 MSTORE PUSH1 0x2 PUSH1 0x20 MSTORE PUSH1 0x40 SWAP1 KECCAK256 DUP1 SLOAD PUSH1 0x1 PUSH1 0x1 PUSH1 0xA0 SHL SUB AND PUSH2 0x41C JUMPI PUSH1 0x40 MLOAD PUSH4 0x1862CFE9 PUSH1 0xE0 SHL DUP2 MSTORE PUSH1 0x4 ADD PUSH1 0x40 MLOAD DUP1 SWAP2 SUB SWAP1 REVERT JUMPDEST DUP1 PUSH1 0x3 ADD SLOAD PUSH1 0x0 SUB PUSH2 0x441 JUMPI PUSH1 0x40 MLOAD PUSH4 0x71515163 PUSH1 0xE1 SHL DUP2 MSTORE PUSH1 0x4 ADD PUSH1 0x40 MLOAD DUP1 SWAP2 SUB SWAP1 REVERT JUMPDEST PUSH1 0x1 PUSH1 0x5 DUP3 ADD SLOAD PUSH1 0xFF AND PUSH1 0x3 DUP2 GT ISZERO PUSH2 0x45C JUMPI PUSH2 0x45C PUSH2 0x1461 JUMP JUMPDEST EQ PUSH2 0x47A JUMPI PUSH1 0x40 MLOAD PUSH4 0x95A27AF PUSH1 0xE2 SHL DUP2 MSTORE PUSH1 0x4 ADD PUSH1 0x40 MLOAD DUP1 SWAP2 SUB SWAP1 REVERT JUMPDEST TIMESTAMP DUP2 PUSH1 0x1 ADD SLOAD LT ISZERO PUSH2 0x49F JUMPI PUSH1 0x40 MLOAD PUSH4 0xE588B007 PUSH1 0xE0 SHL DUP2 MSTORE PUSH1 0x4 ADD PUSH1 0x40 MLOAD DUP1 SWAP2 SUB SWAP1 REVERT JUMPDEST PUSH1 0x40 MLOAD PUSH1 0x1 PUSH1 0x1 PUSH1 0x60 SHL SUB NOT CALLER PUSH1 0x60 SHL AND PUSH1 0x20 DUP3 ADD MSTORE PUSH1 0x34 ADD PUSH1 0x40 MLOAD PUSH1 0x20 DUP2 DUP4 SUB SUB DUP2 MSTORE SWAP1 PUSH1 0x40 MSTORE DUP1 MLOAD SWAP1 PUSH1 0x20 ADD KECCAK256 DUP2 PUSH1 0x6 ADD SLOAD SUB PUSH2 0x4F1 JUMPI PUSH1 0x40 MLOAD PUSH4 0x130F5AD PUSH1 0xE3 SHL DUP2 MSTORE PUSH1 0x4 ADD PUSH1 0x40 MLOAD DUP1 SWAP2 SUB SWAP1 REVERT JUMPDEST PUSH1 0x5 DUP2 ADD DUP1 SLOAD PUSH1 0xFF NOT AND PUSH1 0x2 OR SWAP1 SSTORE DUP1 SLOAD PUSH1 0x1 PUSH1 0xA0 SHL PUSH1 0xFF PUSH1 0xA0 SHL NOT DUP3 AND OR DUP3 SSTORE PUSH1 0x3 DUP3 ADD SLOAD PUSH2 0x52C SWAP2 PUSH1 0x1 PUSH1 0x1 PUSH1 0xA0 SHL SUB AND SWAP1 CALLER SWAP1 PUSH2 0x11B1 JUMP JUMPDEST CALLER PUSH1 0x1 PUSH1 0x1 PUSH1 0xA0 SHL SUB AND DUP3 PUSH32 0x5FA3F9E7544621698EFA9F5CC7B1671D9B5C3C6CF35527E0553E77FA0FAA67F8 DUP4 PUSH1 0x3 ADD SLOAD PUSH1 0x40 MLOAD PUSH2 0x58B SWAP2 DUP2 MSTORE PUSH1 0x40 PUSH1 0x20 DUP3 ADD DUP2 SWAP1 MSTORE PUSH1 0x7 SWAP1 DUP3 ADD MSTORE PUSH7 0x10D31052535151 PUSH1 0xCA SHL PUSH1 0x60 DUP3 ADD MSTORE PUSH1 0x80 ADD SWAP1 JUMP JUMPDEST PUSH1 0x40 MLOAD DUP1 SWAP2 SUB SWAP1 LOG3 POP PUSH2 0x59E PUSH1 0x1 PUSH1 0x0 SSTORE JUMP JUMPDEST POP JUMP JUMPDEST CALLER ADDRESS EQ PUSH2 0x5C1 JUMPI PUSH1 0x40 MLOAD PUSH4 0x3F04A415 PUSH1 0xE0 SHL DUP2 MSTORE PUSH1 0x4 ADD PUSH1 0x40 MLOAD DUP1 SWAP2 SUB SWAP1 REVERT JUMPDEST PUSH1 0x0 JUMPDEST DUP9 DUP2 LT ISZERO PUSH2 0x958 JUMPI TIMESTAMP DUP9 DUP9 DUP4 DUP2 DUP2 LT PUSH2 0x5DF JUMPI PUSH2 0x5DF PUSH2 0x1629 JUMP JUMPDEST SWAP1 POP PUSH1 0x20 MUL ADD CALLDATALOAD GT PUSH2 0x604 JUMPI PUSH1 0x40 MLOAD PUSH4 0x4E96839 PUSH1 0xE2 SHL DUP2 MSTORE PUSH1 0x4 ADD PUSH1 0x40 MLOAD DUP1 SWAP2 SUB SWAP1 REVERT JUMPDEST PUSH1 0x3 DUP7 DUP7 DUP4 DUP2 DUP2 LT PUSH2 0x618 JUMPI PUSH2 0x618 PUSH2 0x1629 JUMP JUMPDEST SWAP1 POP PUSH1 0x20 MUL DUP2 ADD SWAP1 PUSH2 0x62A SWAP2 SWAP1 PUSH2 0x163F JUMP JUMPDEST SWAP1 POP LT DUP1 PUSH2 0x65D JUMPI POP PUSH1 0x32 DUP7 DUP7 DUP4 DUP2 DUP2 LT PUSH2 0x647 JUMPI PUSH2 0x647 PUSH2 0x1629 JUMP JUMPDEST SWAP1 POP PUSH1 0x20 MUL DUP2 ADD SWAP1 PUSH2 0x659 SWAP2 SWAP1 PUSH2 0x163F JUMP JUMPDEST SWAP1 POP GT JUMPDEST ISZERO PUSH2 0x67B JUMPI PUSH1 0x40 MLOAD PUSH4 0x312181A3 PUSH1 0xE2 SHL DUP2 MSTORE PUSH1 0x4 ADD PUSH1 0x40 MLOAD DUP1 SWAP2 SUB SWAP1 REVERT JUMPDEST PUSH1 0x2 PUSH1 0x0 DUP6 DUP6 DUP5 DUP2 DUP2 LT PUSH2 0x691 JUMPI PUSH2 0x691 PUSH2 0x1629 JUMP JUMPDEST SWAP1 POP PUSH1 0x20 MUL ADD CALLDATALOAD DUP2 MSTORE PUSH1 0x20 ADD SWAP1 DUP2 MSTORE PUSH1 0x20 ADD PUSH1 0x0 KECCAK256 PUSH1 0x2 ADD SLOAD PUSH1 0x0 EQ PUSH2 0x6CA JUMPI PUSH1 0x40 MLOAD PUSH4 0x12163EF PUSH1 0xE1 SHL DUP2 MSTORE PUSH1 0x4 ADD PUSH1 0x40 MLOAD DUP1 SWAP2 SUB SWAP1 REVERT JUMPDEST DUP10 DUP10 DUP3 DUP2 DUP2 LT PUSH2 0x6DC JUMPI PUSH2 0x6DC PUSH2 0x1629 JUMP JUMPDEST SWAP1 POP PUSH1 0x20 MUL ADD CALLDATALOAD PUSH1 0x3 PUSH1 0x0 DUP5 DUP2 MSTORE PUSH1 0x20 ADD SWAP1 DUP2 MSTORE PUSH1 0x20 ADD PUSH1 0x0 KECCAK256 PUSH1 0x0 DUP3 DUP3 SLOAD PUSH2 0x705 SWAP2 SWAP1 PUSH2 0x169C JUMP JUMPDEST SWAP1 SWAP2 SSTORE POP POP PUSH1 0x40 DUP1 MLOAD PUSH2 0x100 DUP2 ADD DUP3 MSTORE PUSH1 0x1 PUSH1 0x1 PUSH1 0xA0 SHL SUB DUP14 AND DUP2 MSTORE PUSH1 0x0 PUSH1 0x20 DUP3 ADD MSTORE SWAP1 DUP2 ADD DUP10 DUP10 DUP5 DUP2 DUP2 LT PUSH2 0x73D JUMPI PUSH2 0x73D PUSH2 0x1629 JUMP JUMPDEST SWAP1 POP PUSH1 0x20 MUL ADD CALLDATALOAD DUP2 MSTORE PUSH1 0x20 ADD TIMESTAMP DUP2 MSTORE PUSH1 0x20 ADD DUP12 DUP12 DUP5 DUP2 DUP2 LT PUSH2 0x761 JUMPI PUSH2 0x761 PUSH2 0x1629 JUMP JUMPDEST SWAP1 POP PUSH1 0x20 MUL ADD CALLDATALOAD DUP2 MSTORE PUSH1 0x20 ADD DUP8 DUP8 DUP5 DUP2 DUP2 LT PUSH2 0x77F JUMPI PUSH2 0x77F PUSH2 0x1629 JUMP JUMPDEST SWAP1 POP PUSH1 0x20 MUL DUP2 ADD SWAP1 PUSH2 0x791 SWAP2 SWAP1 PUSH2 0x163F JUMP JUMPDEST DUP1 DUP1 PUSH1 0x1F ADD PUSH1 0x20 DUP1 SWAP2 DIV MUL PUSH1 0x20 ADD PUSH1 0x40 MLOAD SWAP1 DUP2 ADD PUSH1 0x40 MSTORE DUP1 SWAP4 SWAP3 SWAP2 SWAP1 DUP2 DUP2 MSTORE PUSH1 0x20 ADD DUP4 DUP4 DUP1 DUP3 DUP5 CALLDATACOPY PUSH1 0x0 SWAP3 ADD SWAP2 SWAP1 SWAP2 MSTORE POP POP POP SWAP1 DUP3 MSTORE POP PUSH1 0x20 ADD PUSH1 0x1 DUP2 MSTORE PUSH1 0x20 ADD DUP4 SWAP1 MSTORE PUSH1 0x2 PUSH1 0x0 DUP7 DUP7 DUP6 DUP2 DUP2 LT PUSH2 0x7EB JUMPI PUSH2 0x7EB PUSH2 0x1629 JUMP JUMPDEST PUSH1 0x20 SWAP1 DUP2 MUL SWAP3 SWAP1 SWAP3 ADD CALLDATALOAD DUP4 MSTORE POP DUP2 DUP2 ADD SWAP3 SWAP1 SWAP3 MSTORE PUSH1 0x40 SWAP1 DUP2 ADD PUSH1 0x0 KECCAK256 DUP4 MLOAD DUP2 SLOAD SWAP4 DUP6 ADD MLOAD ISZERO ISZERO PUSH1 0x1 PUSH1 0xA0 SHL MUL PUSH1 0x1 PUSH1 0x1 PUSH1 0xA8 SHL SUB NOT SWAP1 SWAP5 AND PUSH1 0x1 PUSH1 0x1 PUSH1 0xA0 SHL SUB SWAP1 SWAP2 AND OR SWAP3 SWAP1 SWAP3 OR DUP3 SSTORE DUP3 ADD MLOAD PUSH1 0x1 DUP3 ADD SSTORE PUSH1 0x60 DUP3 ADD MLOAD PUSH1 0x2 DUP3 ADD SSTORE PUSH1 0x80 DUP3 ADD MLOAD PUSH1 0x3 DUP3 ADD SSTORE PUSH1 0xA0 DUP3 ADD MLOAD PUSH1 0x4 DUP3 ADD SWAP1 PUSH2 0x865 SWAP1 DUP3 PUSH2 0x1703 JUMP JUMPDEST POP PUSH1 0xC0 DUP3 ADD MLOAD PUSH1 0x5 DUP3 ADD DUP1 SLOAD PUSH1 0xFF NOT AND PUSH1 0x1 DUP4 PUSH1 0x3 DUP2 GT ISZERO PUSH2 0x889 JUMPI PUSH2 0x889 PUSH2 0x1461 JUMP JUMPDEST MUL OR SWAP1 SSTORE POP PUSH1 0xE0 DUP3 ADD MLOAD DUP2 PUSH1 0x6 ADD SSTORE SWAP1 POP POP DUP11 PUSH1 0x1 PUSH1 0x1 PUSH1 0xA0 SHL SUB AND DUP3 DUP6 DUP6 DUP5 DUP2 DUP2 LT PUSH2 0x8B8 JUMPI PUSH2 0x8B8 PUSH2 0x1629 JUMP JUMPDEST SWAP1 POP PUSH1 0x20 MUL ADD CALLDATALOAD PUSH32 0xFC007AE3F08AC6D013BF8E2D0783D44A7F8ED16433190293618D9EE28F734AED DUP10 DUP10 DUP7 DUP2 DUP2 LT PUSH2 0x8F2 JUMPI PUSH2 0x8F2 PUSH2 0x1629 JUMP JUMPDEST SWAP1 POP PUSH1 0x20 MUL DUP2 ADD SWAP1 PUSH2 0x904 SWAP2 SWAP1 PUSH2 0x163F JUMP JUMPDEST DUP16 DUP16 DUP9 DUP2 DUP2 LT PUSH2 0x916 JUMPI PUSH2 0x916 PUSH2 0x1629 JUMP JUMPDEST SWAP1 POP PUSH1 0x20 MUL ADD CALLDATALOAD DUP15 DUP15 DUP10 DUP2 DUP2 LT PUSH2 0x92F JUMPI PUSH2 0x92F PUSH2 0x1629 JUMP JUMPDEST SWAP1 POP PUSH1 0x20 MUL ADD CALLDATALOAD TIMESTAMP PUSH1 0x40 MLOAD PUSH2 0x948 SWAP6 SWAP5 SWAP4 SWAP3 SWAP2 SWAP1 PUSH2 0x17EB JUMP JUMPDEST PUSH1 0x40 MLOAD DUP1 SWAP2 SUB SWAP1 LOG4 PUSH1 0x1 ADD PUSH2 0x5C4 JUMP JUMPDEST POP POP POP POP POP POP POP POP POP POP POP JUMP JUMPDEST PUSH1 0x5 DUP9 LT ISZERO PUSH2 0x987 JUMPI PUSH1 0x40 MLOAD PUSH4 0x433F120B PUSH1 0xE0 SHL DUP2 MSTORE PUSH1 0x4 ADD PUSH1 0x40 MLOAD DUP1 SWAP2 SUB SWAP1 REVERT JUMPDEST DUP8 DUP7 EQ ISZERO DUP1 PUSH2 0x996 JUMPI POP DUP8 DUP5 EQ ISZERO JUMPDEST DUP1 PUSH2 0x9A1 JUMPI POP DUP8 DUP3 EQ ISZERO JUMPDEST ISZERO PUSH2 0x9BF JUMPI PUSH1 0x40 MLOAD PUSH4 0x4456F5E9 PUSH1 0xE1 SHL DUP2 MSTORE PUSH1 0x4 ADD PUSH1 0x40 MLOAD DUP1 SWAP2 SUB SWAP1 REVERT JUMPDEST PUSH1 0x40 MLOAD PUSH1 0x1 PUSH1 0x1 PUSH1 0x60 SHL SUB NOT CALLER PUSH1 0x60 SHL AND PUSH1 0x20 DUP3 ADD MSTORE DUP2 SWAP1 PUSH1 0x34 ADD PUSH1 0x40 MLOAD PUSH1 0x20 DUP2 DUP4 SUB SUB DUP2 MSTORE SWAP1 PUSH1 0x40 MSTORE DUP1 MLOAD SWAP1 PUSH1 0x20 ADD KECCAK256 EQ PUSH2 0xA0E JUMPI PUSH1 0x40 MLOAD PUSH4 0x6177623 PUSH1 0xE5 SHL DUP2 MSTORE PUSH1 0x4 ADD PUSH1 0x40 MLOAD DUP1 SWAP2 SUB SWAP1 REVERT JUMPDEST PUSH1 0x1 PUSH1 0x1 PUSH1 0xA0 SHL SUB DUP11 AND PUSH2 0xA35 JUMPI PUSH1 0x40 MLOAD PUSH4 0x5963709B PUSH1 0xE0 SHL DUP2 MSTORE PUSH1 0x4 ADD PUSH1 0x40 MLOAD DUP1 SWAP2 SUB SWAP1 REVERT JUMPDEST DUP10 PUSH1 0x0 DUP1 JUMPDEST DUP11 DUP2 LT ISZERO PUSH2 0xAA9 JUMPI PUSH1 0x0 DUP13 DUP13 DUP4 DUP2 DUP2 LT PUSH2 0xA56 JUMPI PUSH2 0xA56 PUSH2 0x1629 JUMP JUMPDEST SWAP1 POP PUSH1 0x20 MUL ADD CALLDATALOAD GT PUSH2 0xA7B JUMPI PUSH1 0x40 MLOAD PUSH4 0xFAE82791 PUSH1 0xE0 SHL DUP2 MSTORE PUSH1 0x4 ADD PUSH1 0x40 MLOAD DUP1 SWAP2 SUB SWAP1 REVERT JUMPDEST DUP12 DUP12 DUP3 DUP2 DUP2 LT PUSH2 0xA8D JUMPI PUSH2 0xA8D PUSH2 0x1629 JUMP JUMPDEST SWAP1 POP PUSH1 0x20 MUL ADD CALLDATALOAD DUP3 PUSH2 0xA9F SWAP2 SWAP1 PUSH2 0x1843 JUMP JUMPDEST SWAP2 POP PUSH1 0x1 ADD PUSH2 0xA3A JUMP JUMPDEST POP PUSH1 0x40 MLOAD PUSH4 0x23B872DD PUSH1 0xE0 SHL DUP2 MSTORE CALLER PUSH1 0x4 DUP3 ADD MSTORE ADDRESS PUSH1 0x24 DUP3 ADD MSTORE PUSH1 0x44 DUP2 ADD DUP3 SWAP1 MSTORE PUSH1 0x1 PUSH1 0x1 PUSH1 0xA0 SHL SUB DUP4 AND SWAP1 PUSH4 0x23B872DD SWAP1 PUSH1 0x64 ADD PUSH1 0x20 PUSH1 0x40 MLOAD DUP1 DUP4 SUB DUP2 PUSH1 0x0 DUP8 GAS CALL ISZERO DUP1 ISZERO PUSH2 0xAFD JUMPI RETURNDATASIZE PUSH1 0x0 DUP1 RETURNDATACOPY RETURNDATASIZE PUSH1 0x0 REVERT JUMPDEST POP POP POP POP PUSH1 0x40 MLOAD RETURNDATASIZE PUSH1 0x1F NOT PUSH1 0x1F DUP3 ADD AND DUP3 ADD DUP1 PUSH1 0x40 MSTORE POP DUP2 ADD SWAP1 PUSH2 0xB21 SWAP2 SWAP1 PUSH2 0x1856 JUMP JUMPDEST PUSH2 0xB3E JUMPI PUSH1 0x40 MLOAD PUSH4 0x1FA55C07 PUSH1 0xE1 SHL DUP2 MSTORE PUSH1 0x4 ADD PUSH1 0x40 MLOAD DUP1 SWAP2 SUB SWAP1 REVERT JUMPDEST PUSH1 0x0 DUP4 DUP2 MSTORE PUSH1 0x3 PUSH1 0x20 MSTORE PUSH1 0x40 SWAP1 DUP2 SWAP1 KECCAK256 DUP3 SWAP1 SSTORE MLOAD PUSH4 0x9E85DAD9 PUSH1 0xE0 SHL DUP2 MSTORE ADDRESS SWAP1 PUSH4 0x9E85DAD9 SWAP1 PUSH2 0xB84 SWAP1 DUP16 SWAP1 DUP16 SWAP1 DUP16 SWAP1 DUP16 SWAP1 DUP16 SWAP1 DUP16 SWAP1 DUP16 SWAP1 DUP16 SWAP1 DUP16 SWAP1 DUP16 SWAP1 PUSH1 0x4 ADD PUSH2 0x18B1 JUMP JUMPDEST PUSH1 0x0 PUSH1 0x40 MLOAD DUP1 DUP4 SUB DUP2 PUSH1 0x0 DUP8 DUP1 EXTCODESIZE ISZERO DUP1 ISZERO PUSH2 0xB9E JUMPI PUSH1 0x0 DUP1 REVERT JUMPDEST POP GAS CALL SWAP3 POP POP POP DUP1 ISZERO PUSH2 0xBAF JUMPI POP PUSH1 0x1 JUMPDEST PUSH2 0xC04 JUMPI PUSH1 0x0 DUP4 DUP2 MSTORE PUSH1 0x3 PUSH1 0x20 MSTORE PUSH1 0x40 SWAP1 KECCAK256 SLOAD DUP1 ISZERO PUSH2 0xBEB JUMPI PUSH1 0x0 DUP5 DUP2 MSTORE PUSH1 0x3 PUSH1 0x20 MSTORE PUSH1 0x40 DUP2 KECCAK256 SSTORE PUSH2 0xBEB PUSH1 0x1 PUSH1 0x1 PUSH1 0xA0 SHL SUB DUP5 AND CALLER DUP4 PUSH2 0x11B1 JUMP JUMPDEST PUSH1 0x40 MLOAD PUSH4 0x3F777B7 PUSH1 0xE2 SHL DUP2 MSTORE PUSH1 0x4 ADD PUSH1 0x40 MLOAD DUP1 SWAP2 SUB SWAP1 REVERT JUMPDEST POP POP PUSH1 0x0 SWAP1 DUP2 MSTORE PUSH1 0x3 PUSH1 0x20 MSTORE PUSH1 0x40 DUP2 KECCAK256 SSTORE POP POP POP POP POP POP POP POP POP JUMP JUMPDEST PUSH1 0x2 PUSH1 0x20 DUP2 SWAP1 MSTORE PUSH1 0x0 SWAP2 DUP3 MSTORE PUSH1 0x40 SWAP1 SWAP2 KECCAK256 DUP1 SLOAD PUSH1 0x1 DUP3 ADD SLOAD SWAP3 DUP3 ADD SLOAD PUSH1 0x3 DUP4 ADD SLOAD PUSH1 0x4 DUP5 ADD DUP1 SLOAD PUSH1 0x1 PUSH1 0x1 PUSH1 0xA0 SHL SUB DUP6 AND SWAP7 PUSH1 0x1 PUSH1 0xA0 SHL SWAP1 SWAP6 DIV PUSH1 0xFF AND SWAP6 SWAP2 SWAP1 PUSH2 0xC69 SWAP1 PUSH2 0x15EF JUMP JUMPDEST DUP1 PUSH1 0x1F ADD PUSH1 0x20 DUP1 SWAP2 DIV MUL PUSH1 0x20 ADD PUSH1 0x40 MLOAD SWAP1 DUP2 ADD PUSH1 0x40 MSTORE DUP1 SWAP3 SWAP2 SWAP1 DUP2 DUP2 MSTORE PUSH1 0x20 ADD DUP3 DUP1 SLOAD PUSH2 0xC95 SWAP1 PUSH2 0x15EF JUMP JUMPDEST DUP1 ISZERO PUSH2 0xCE2 JUMPI DUP1 PUSH1 0x1F LT PUSH2 0xCB7 JUMPI PUSH2 0x100 DUP1 DUP4 SLOAD DIV MUL DUP4 MSTORE SWAP2 PUSH1 0x20 ADD SWAP2 PUSH2 0xCE2 JUMP JUMPDEST DUP3 ADD SWAP2 SWAP1 PUSH1 0x0 MSTORE PUSH1 0x20 PUSH1 0x0 KECCAK256 SWAP1 JUMPDEST DUP2 SLOAD DUP2 MSTORE SWAP1 PUSH1 0x1 ADD SWAP1 PUSH1 0x20 ADD DUP1 DUP4 GT PUSH2 0xCC5 JUMPI DUP3 SWAP1 SUB PUSH1 0x1F AND DUP3 ADD SWAP2 JUMPDEST POP POP POP POP PUSH1 0x5 DUP4 ADD SLOAD PUSH1 0x6 SWAP1 SWAP4 ADD SLOAD SWAP2 SWAP3 PUSH1 0xFF AND SWAP2 SWAP1 POP DUP9 JUMP JUMPDEST PUSH2 0xD04 PUSH2 0x1187 JUMP JUMPDEST PUSH1 0x0 DUP2 DUP2 MSTORE PUSH1 0x2 PUSH1 0x20 MSTORE PUSH1 0x40 SWAP1 KECCAK256 DUP1 SLOAD PUSH1 0x1 PUSH1 0x1 PUSH1 0xA0 SHL SUB AND PUSH2 0xD3A JUMPI PUSH1 0x40 MLOAD PUSH4 0x615B0ED PUSH1 0xE4 SHL DUP2 MSTORE PUSH1 0x4 ADD PUSH1 0x40 MLOAD DUP1 SWAP2 SUB SWAP1 REVERT JUMPDEST PUSH1 0x6 DUP2 ADD SLOAD PUSH1 0x40 MLOAD PUSH1 0x1 PUSH1 0x1 PUSH1 0x60 SHL SUB NOT CALLER PUSH1 0x60 SHL AND PUSH1 0x20 DUP3 ADD MSTORE PUSH1 0x34 ADD PUSH1 0x40 MLOAD PUSH1 0x20 DUP2 DUP4 SUB SUB DUP2 MSTORE SWAP1 PUSH1 0x40 MSTORE DUP1 MLOAD SWAP1 PUSH1 0x20 ADD KECCAK256 EQ PUSH2 0xD8C JUMPI PUSH1 0x40 MLOAD PUSH4 0x3C68288F PUSH1 0xE0 SHL DUP2 MSTORE PUSH1 0x4 ADD PUSH1 0x40 MLOAD DUP1 SWAP2 SUB SWAP1 REVERT JUMPDEST PUSH1 0x2 PUSH1 0x5 DUP3 ADD SLOAD PUSH1 0xFF AND PUSH1 0x3 DUP2 GT ISZERO PUSH2 0xDA7 JUMPI PUSH2 0xDA7 PUSH2 0x1461 JUMP JUMPDEST SUB PUSH2 0xDC5 JUMPI PUSH1 0x40 MLOAD PUSH4 0x88E8CA65 PUSH1 0xE0 SHL DUP2 MSTORE PUSH1 0x4 ADD PUSH1 0x40 MLOAD DUP1 SWAP2 SUB SWAP1 REVERT JUMPDEST PUSH1 0x3 PUSH1 0x5 DUP3 ADD SLOAD PUSH1 0xFF AND PUSH1 0x3 DUP2 GT ISZERO PUSH2 0xDE0 JUMPI PUSH2 0xDE0 PUSH2 0x1461 JUMP JUMPDEST SUB PUSH2 0xDFE JUMPI PUSH1 0x40 MLOAD PUSH4 0x11026569 PUSH1 0xE1 SHL DUP2 MSTORE PUSH1 0x4 ADD PUSH1 0x40 MLOAD DUP1 SWAP2 SUB SWAP1 REVERT JUMPDEST DUP1 PUSH1 0x1 ADD SLOAD TIMESTAMP GT PUSH2 0xE22 JUMPI PUSH1 0x40 MLOAD PUSH4 0x8DBECB9 PUSH1 0xE1 SHL DUP2 MSTORE PUSH1 0x4 ADD PUSH1 0x40 MLOAD DUP1 SWAP2 SUB SWAP1 REVERT JUMPDEST PUSH1 0x5 DUP2 ADD DUP1 SLOAD PUSH1 0xFF NOT AND PUSH1 0x3 SWAP1 DUP2 OR SWAP1 SWAP2 SSTORE DUP2 SLOAD PUSH1 0x1 PUSH1 0xA0 SHL PUSH1 0xFF PUSH1 0xA0 SHL NOT DUP3 AND OR DUP4 SSTORE SWAP1 DUP3 ADD SLOAD PUSH2 0xE5F SWAP2 PUSH1 0x1 PUSH1 0x1 PUSH1 0xA0 SHL SUB AND SWAP1 CALLER SWAP1 PUSH2 0x11B1 JUMP JUMPDEST CALLER PUSH1 0x1 PUSH1 0x1 PUSH1 0xA0 SHL SUB AND DUP3 PUSH32 0x285A507B21EE662F44AA4CE8B5B57ED14C3BEECEDE75C04BEA30E8CE14A2E776 DUP4 PUSH1 0x3 ADD SLOAD PUSH1 0x40 MLOAD PUSH2 0x58B SWAP2 DUP2 MSTORE PUSH1 0x40 PUSH1 0x20 DUP3 ADD DUP2 SWAP1 MSTORE PUSH1 0x9 SWAP1 DUP3 ADD MSTORE PUSH9 0x149150D31052535151 PUSH1 0xBA SHL PUSH1 0x60 DUP3 ADD MSTORE PUSH1 0x80 ADD SWAP1 JUMP JUMPDEST PUSH1 0x1 SLOAD PUSH1 0x1 PUSH1 0x1 PUSH1 0xA0 SHL SUB AND CALLER EQ PUSH2 0xEEB JUMPI PUSH1 0x40 MLOAD PUSH4 0x984AB909 PUSH1 0xE0 SHL DUP2 MSTORE PUSH1 0x4 ADD PUSH1 0x40 MLOAD DUP1 SWAP2 SUB SWAP1 REVERT JUMPDEST PUSH1 0x1 PUSH1 0x1 PUSH1 0xA0 SHL SUB DUP7 AND PUSH2 0xF12 JUMPI PUSH1 0x40 MLOAD PUSH4 0x5963709B PUSH1 0xE0 SHL DUP2 MSTORE PUSH1 0x4 ADD PUSH1 0x40 MLOAD DUP1 SWAP2 SUB SWAP1 REVERT JUMPDEST PUSH1 0x0 DUP6 GT PUSH2 0xF33 JUMPI PUSH1 0x40 MLOAD PUSH4 0xFAE82791 PUSH1 0xE0 SHL DUP2 MSTORE PUSH1 0x4 ADD PUSH1 0x40 MLOAD DUP1 SWAP2 SUB SWAP1 REVERT JUMPDEST TIMESTAMP DUP5 GT PUSH2 0xF53 JUMPI PUSH1 0x40 MLOAD PUSH4 0x4E96839 PUSH1 0xE2 SHL DUP2 MSTORE PUSH1 0x4 ADD PUSH1 0x40 MLOAD DUP1 SWAP2 SUB SWAP1 REVERT JUMPDEST PUSH1 0x3 DUP4 MLOAD LT DUP1 PUSH2 0xF64 JUMPI POP PUSH1 0x32 DUP4 MLOAD GT JUMPDEST ISZERO PUSH2 0xF82 JUMPI PUSH1 0x40 MLOAD PUSH4 0x312181A3 PUSH1 0xE2 SHL DUP2 MSTORE PUSH1 0x4 ADD PUSH1 0x40 MLOAD DUP1 SWAP2 SUB SWAP1 REVERT JUMPDEST PUSH1 0x0 DUP3 DUP2 MSTORE PUSH1 0x2 PUSH1 0x20 DUP2 SWAP1 MSTORE PUSH1 0x40 SWAP1 SWAP2 KECCAK256 ADD SLOAD ISZERO PUSH2 0xFB3 JUMPI PUSH1 0x40 MLOAD PUSH4 0x12163EF PUSH1 0xE1 SHL DUP2 MSTORE PUSH1 0x4 ADD PUSH1 0x40 MLOAD DUP1 SWAP2 SUB SWAP1 REVERT JUMPDEST PUSH1 0x40 MLOAD PUSH4 0x23B872DD PUSH1 0xE0 SHL DUP2 MSTORE CALLER PUSH1 0x4 DUP3 ADD MSTORE ADDRESS PUSH1 0x24 DUP3 ADD MSTORE PUSH1 0x44 DUP2 ADD DUP7 SWAP1 MSTORE DUP7 SWAP1 PUSH1 0x1 PUSH1 0x1 PUSH1 0xA0 SHL SUB DUP3 AND SWAP1 PUSH4 0x23B872DD SWAP1 PUSH1 0x64 ADD PUSH1 0x20 PUSH1 0x40 MLOAD DUP1 DUP4 SUB DUP2 PUSH1 0x0 DUP8 GAS CALL ISZERO DUP1 ISZERO PUSH2 0x1008 JUMPI RETURNDATASIZE PUSH1 0x0 DUP1 RETURNDATACOPY RETURNDATASIZE PUSH1 0x0 REVERT JUMPDEST POP POP POP POP PUSH1 0x40 MLOAD RETURNDATASIZE PUSH1 0x1F NOT PUSH1 0x1F DUP3 ADD AND DUP3 ADD DUP1 PUSH1 0x40 MSTORE POP DUP2 ADD SWAP1 PUSH2 0x102C SWAP2 SWAP1 PUSH2 0x1856 JUMP JUMPDEST PUSH2 0x1049 JUMPI PUSH1 0x40 MLOAD PUSH4 0x1FA55C07 PUSH1 0xE1 SHL DUP2 MSTORE PUSH1 0x4 ADD PUSH1 0x40 MLOAD DUP1 SWAP2 SUB SWAP1 REVERT JUMPDEST PUSH1 0x40 DUP1 MLOAD PUSH2 0x100 DUP2 ADD DUP3 MSTORE PUSH1 0x1 PUSH1 0x1 PUSH1 0xA0 SHL SUB DUP10 AND DUP2 MSTORE PUSH1 0x0 PUSH1 0x20 DUP3 ADD MSTORE SWAP1 DUP2 ADD DUP7 SWAP1 MSTORE TIMESTAMP PUSH1 0x60 DUP3 ADD MSTORE PUSH1 0x80 DUP2 ADD DUP8 SWAP1 MSTORE PUSH1 0xA0 DUP2 ADD DUP6 SWAP1 MSTORE PUSH1 0xC0 DUP2 ADD PUSH1 0x1 DUP2 MSTORE PUSH1 0x20 SWAP1 DUP2 ADD DUP5 SWAP1 MSTORE PUSH1 0x0 DUP6 DUP2 MSTORE PUSH1 0x2 DUP1 DUP4 MSTORE PUSH1 0x40 SWAP2 DUP3 SWAP1 KECCAK256 DUP5 MLOAD DUP2 SLOAD SWAP5 DUP7 ADD MLOAD ISZERO ISZERO PUSH1 0x1 PUSH1 0xA0 SHL MUL PUSH1 0x1 PUSH1 0x1 PUSH1 0xA8 SHL SUB NOT SWAP1 SWAP6 AND PUSH1 0x1 PUSH1 0x1 PUSH1 0xA0 SHL SUB SWAP1 SWAP2 AND OR SWAP4 SWAP1 SWAP4 OR DUP4 SSTORE SWAP1 DUP4 ADD MLOAD PUSH1 0x1 DUP4 ADD SSTORE PUSH1 0x60 DUP4 ADD MLOAD SWAP1 DUP3 ADD SSTORE PUSH1 0x80 DUP3 ADD MLOAD PUSH1 0x3 DUP3 ADD SSTORE PUSH1 0xA0 DUP3 ADD MLOAD PUSH1 0x4 DUP3 ADD SWAP1 PUSH2 0x10FF SWAP1 DUP3 PUSH2 0x1703 JUMP JUMPDEST POP PUSH1 0xC0 DUP3 ADD MLOAD PUSH1 0x5 DUP3 ADD DUP1 SLOAD PUSH1 0xFF NOT AND PUSH1 0x1 DUP4 PUSH1 0x3 DUP2 GT ISZERO PUSH2 0x1123 JUMPI PUSH2 0x1123 PUSH2 0x1461 JUMP JUMPDEST MUL OR SWAP1 SSTORE POP PUSH1 0xE0 DUP3 ADD MLOAD DUP2 PUSH1 0x6 ADD SSTORE SWAP1 POP POP DUP7 PUSH1 0x1 PUSH1 0x1 PUSH1 0xA0 SHL SUB AND DUP3 DUP5 PUSH32 0xFC007AE3F08AC6D013BF8E2D0783D44A7F8ED16433190293618D9EE28F734AED DUP8 DUP11 DUP11 TIMESTAMP PUSH1 0x40 MLOAD PUSH2 0x1176 SWAP5 SWAP4 SWAP3 SWAP2 SWAP1 PUSH2 0x19B1 JUMP JUMPDEST PUSH1 0x40 MLOAD DUP1 SWAP2 SUB SWAP1 LOG4 POP POP POP POP POP POP POP JUMP JUMPDEST PUSH1 0x2 PUSH1 0x0 SLOAD SUB PUSH2 0x11AA JUMPI PUSH1 0x40 MLOAD PUSH4 0x3EE5AEB5 PUSH1 0xE0 SHL DUP2 MSTORE PUSH1 0x4 ADD PUSH1 0x40 MLOAD DUP1 SWAP2 SUB SWAP1 REVERT JUMPDEST PUSH1 0x2 PUSH1 0x0 SSTORE JUMP JUMPDEST PUSH1 0x40 DUP1 MLOAD PUSH1 0x1 PUSH1 0x1 PUSH1 0xA0 SHL SUB DUP5 AND PUSH1 0x24 DUP3 ADD MSTORE PUSH1 0x44 DUP1 DUP3 ADD DUP5 SWAP1 MSTORE DUP3 MLOAD DUP1 DUP4 SUB SWAP1 SWAP2 ADD DUP2 MSTORE PUSH1 0x64 SWAP1 SWAP2 ADD SWAP1 SWAP2 MSTORE PUSH1 0x20 DUP2 ADD DUP1 MLOAD PUSH1 0x1 PUSH1 0x1 PUSH1 0xE0 SHL SUB AND PUSH4 0xA9059CBB PUSH1 0xE0 SHL OR SWAP1 MSTORE PUSH2 0x1203 SWAP1 DUP5 SWAP1 PUSH2 0x1208 JUMP JUMPDEST POP POP POP JUMP JUMPDEST PUSH1 0x0 DUP1 PUSH1 0x20 PUSH1 0x0 DUP5 MLOAD PUSH1 0x20 DUP7 ADD PUSH1 0x0 DUP9 GAS CALL DUP1 PUSH2 0x122B JUMPI PUSH1 0x40 MLOAD RETURNDATASIZE PUSH1 0x0 DUP3 RETURNDATACOPY RETURNDATASIZE DUP2 REVERT JUMPDEST POP POP PUSH1 0x0 MLOAD RETURNDATASIZE SWAP2 POP DUP2 ISZERO PUSH2 0x1243 JUMPI DUP1 PUSH1 0x1 EQ ISZERO PUSH2 0x1250 JUMP JUMPDEST PUSH1 0x1 PUSH1 0x1 PUSH1 0xA0 SHL SUB DUP5 AND EXTCODESIZE ISZERO JUMPDEST ISZERO PUSH2 0x127D JUMPI PUSH1 0x40 MLOAD PUSH4 0x5274AFE7 PUSH1 0xE0 SHL DUP2 MSTORE PUSH1 0x1 PUSH1 0x1 PUSH1 0xA0 SHL SUB DUP6 AND PUSH1 0x4 DUP3 ADD MSTORE PUSH1 0x24 ADD PUSH1 0x40 MLOAD DUP1 SWAP2 SUB SWAP1 REVERT JUMPDEST POP POP POP POP JUMP JUMPDEST PUSH1 0x0 PUSH1 0x20 DUP3 DUP5 SUB SLT ISZERO PUSH2 0x1295 JUMPI PUSH1 0x0 DUP1 REVERT JUMPDEST POP CALLDATALOAD SWAP2 SWAP1 POP JUMP JUMPDEST PUSH1 0x0 DUP2 MLOAD DUP1 DUP5 MSTORE PUSH1 0x0 JUMPDEST DUP2 DUP2 LT ISZERO PUSH2 0x12C2 JUMPI PUSH1 0x20 DUP2 DUP6 ADD DUP2 ADD MLOAD DUP7 DUP4 ADD DUP3 ADD MSTORE ADD PUSH2 0x12A6 JUMP JUMPDEST POP PUSH1 0x0 PUSH1 0x20 DUP3 DUP7 ADD ADD MSTORE PUSH1 0x20 PUSH1 0x1F NOT PUSH1 0x1F DUP4 ADD AND DUP6 ADD ADD SWAP2 POP POP SWAP3 SWAP2 POP POP JUMP JUMPDEST DUP3 ISZERO ISZERO DUP2 MSTORE PUSH1 0x40 PUSH1 0x20 DUP3 ADD MSTORE PUSH1 0x0 PUSH2 0x12FD PUSH1 0x40 DUP4 ADD DUP5 PUSH2 0x129C JUMP JUMPDEST SWAP5 SWAP4 POP POP POP POP JUMP JUMPDEST DUP1 CALLDATALOAD PUSH1 0x1 PUSH1 0x1 PUSH1 0xA0 SHL SUB DUP2 AND DUP2 EQ PUSH2 0x131C JUMPI PUSH1 0x0 DUP1 REVERT JUMPDEST SWAP2 SWAP1 POP JUMP JUMPDEST PUSH1 0x0 DUP1 DUP4 PUSH1 0x1F DUP5 ADD SLT PUSH2 0x1333 JUMPI PUSH1 0x0 DUP1 REVERT JUMPDEST POP DUP2 CALLDATALOAD PUSH8 0xFFFFFFFFFFFFFFFF DUP2 GT ISZERO PUSH2 0x134B JUMPI PUSH1 0x0 DUP1 REVERT JUMPDEST PUSH1 0x20 DUP4 ADD SWAP2 POP DUP4 PUSH1 0x20 DUP3 PUSH1 0x5 SHL DUP6 ADD ADD GT ISZERO PUSH2 0x1366 JUMPI PUSH1 0x0 DUP1 REVERT JUMPDEST SWAP3 POP SWAP3 SWAP1 POP JUMP JUMPDEST PUSH1 0x0 DUP1 PUSH1 0x0 DUP1 PUSH1 0x0 DUP1 PUSH1 0x0 DUP1 PUSH1 0x0 DUP1 PUSH1 0xC0 DUP12 DUP14 SUB SLT ISZERO PUSH2 0x138C JUMPI PUSH1 0x0 DUP1 REVERT JUMPDEST PUSH2 0x1395 DUP12 PUSH2 0x1305 JUMP JUMPDEST SWAP10 POP PUSH1 0x20 DUP12 ADD CALLDATALOAD PUSH8 0xFFFFFFFFFFFFFFFF DUP2 GT ISZERO PUSH2 0x13B1 JUMPI PUSH1 0x0 DUP1 REVERT JUMPDEST PUSH2 0x13BD DUP14 DUP3 DUP15 ADD PUSH2 0x1321 JUMP JUMPDEST SWAP1 SWAP11 POP SWAP9 POP POP PUSH1 0x40 DUP12 ADD CALLDATALOAD PUSH8 0xFFFFFFFFFFFFFFFF DUP2 GT ISZERO PUSH2 0x13DD JUMPI PUSH1 0x0 DUP1 REVERT JUMPDEST PUSH2 0x13E9 DUP14 DUP3 DUP15 ADD PUSH2 0x1321 JUMP JUMPDEST SWAP1 SWAP9 POP SWAP7 POP POP PUSH1 0x60 DUP12 ADD CALLDATALOAD PUSH8 0xFFFFFFFFFFFFFFFF DUP2 GT ISZERO PUSH2 0x1409 JUMPI PUSH1 0x0 DUP1 REVERT JUMPDEST PUSH2 0x1415 DUP14 DUP3 DUP15 ADD PUSH2 0x1321 JUMP JUMPDEST SWAP1 SWAP7 POP SWAP5 POP POP PUSH1 0x80 DUP12 ADD CALLDATALOAD PUSH8 0xFFFFFFFFFFFFFFFF DUP2 GT ISZERO PUSH2 0x1435 JUMPI PUSH1 0x0 DUP1 REVERT JUMPDEST PUSH2 0x1441 DUP14 DUP3 DUP15 ADD PUSH2 0x1321 JUMP JUMPDEST SWAP12 SWAP15 SWAP11 SWAP14 POP SWAP9 SWAP12 SWAP8 SWAP11 SWAP7 SWAP10 SWAP6 SWAP9 SWAP5 SWAP8 SWAP5 SWAP7 SWAP6 PUSH1 0xA0 SWAP1 SWAP6 ADD CALLDATALOAD SWAP5 SWAP4 POP POP POP POP JUMP JUMPDEST PUSH4 0x4E487B71 PUSH1 0xE0 SHL PUSH1 0x0 MSTORE PUSH1 0x21 PUSH1 0x4 MSTORE PUSH1 0x24 PUSH1 0x0 REVERT JUMPDEST PUSH1 0x1 DUP1 PUSH1 0xA0 SHL SUB DUP10 AND DUP2 MSTORE DUP8 ISZERO ISZERO PUSH1 0x20 DUP3 ADD MSTORE DUP7 PUSH1 0x40 DUP3 ADD MSTORE DUP6 PUSH1 0x60 DUP3 ADD MSTORE DUP5 PUSH1 0x80 DUP3 ADD MSTORE PUSH2 0x100 PUSH1 0xA0 DUP3 ADD MSTORE PUSH1 0x0 PUSH2 0x14B4 PUSH2 0x100 DUP4 ADD DUP7 PUSH2 0x129C JUMP JUMPDEST SWAP1 POP PUSH1 0x4 DUP5 LT PUSH2 0x14D4 JUMPI PUSH4 0x4E487B71 PUSH1 0xE0 SHL PUSH1 0x0 MSTORE PUSH1 0x21 PUSH1 0x4 MSTORE PUSH1 0x24 PUSH1 0x0 REVERT JUMPDEST PUSH1 0xC0 DUP3 ADD SWAP4 SWAP1 SWAP4 MSTORE PUSH1 0xE0 ADD MSTORE SWAP7 SWAP6 POP POP POP POP POP POP JUMP JUMPDEST PUSH4 0x4E487B71 PUSH1 0xE0 SHL PUSH1 0x0 MSTORE PUSH1 0x41 PUSH1 0x4 MSTORE PUSH1 0x24 PUSH1 0x0 REVERT JUMPDEST PUSH1 0x0 DUP1 PUSH1 0x0 DUP1 PUSH1 0x0 DUP1 PUSH1 0xC0 DUP8 DUP10 SUB SLT ISZERO PUSH2 0x1519 JUMPI PUSH1 0x0 DUP1 REVERT JUMPDEST PUSH2 0x1522 DUP8 PUSH2 0x1305 JUMP JUMPDEST SWAP6 POP PUSH1 0x20 DUP8 ADD CALLDATALOAD SWAP5 POP PUSH1 0x40 DUP8 ADD CALLDATALOAD SWAP4 POP PUSH1 0x60 DUP8 ADD CALLDATALOAD PUSH8 0xFFFFFFFFFFFFFFFF DUP2 GT ISZERO PUSH2 0x154C JUMPI PUSH1 0x0 DUP1 REVERT JUMPDEST DUP8 ADD PUSH1 0x1F DUP2 ADD DUP10 SGT PUSH2 0x155D JUMPI PUSH1 0x0 DUP1 REVERT JUMPDEST DUP1 CALLDATALOAD PUSH8 0xFFFFFFFFFFFFFFFF DUP2 GT ISZERO PUSH2 0x1577 JUMPI PUSH2 0x1577 PUSH2 0x14EA JUMP JUMPDEST PUSH1 0x40 MLOAD PUSH1 0x1F DUP3 ADD PUSH1 0x1F NOT SWAP1 DUP2 AND PUSH1 0x3F ADD AND DUP2 ADD PUSH8 0xFFFFFFFFFFFFFFFF DUP2 GT DUP3 DUP3 LT OR ISZERO PUSH2 0x15A6 JUMPI PUSH2 0x15A6 PUSH2 0x14EA JUMP JUMPDEST PUSH1 0x40 MSTORE DUP2 DUP2 MSTORE DUP3 DUP3 ADD PUSH1 0x20 ADD DUP12 LT ISZERO PUSH2 0x15BE JUMPI PUSH1 0x0 DUP1 REVERT JUMPDEST DUP2 PUSH1 0x20 DUP5 ADD PUSH1 0x20 DUP4 ADD CALLDATACOPY PUSH1 0x0 SWAP2 DUP2 ADD PUSH1 0x20 ADD SWAP2 SWAP1 SWAP2 MSTORE SWAP7 SWAP10 SWAP6 SWAP9 POP SWAP4 SWAP7 PUSH1 0x80 DUP2 ADD CALLDATALOAD SWAP6 PUSH1 0xA0 SWAP1 SWAP2 ADD CALLDATALOAD SWAP5 POP SWAP3 POP POP POP JUMP JUMPDEST PUSH1 0x1 DUP2 DUP2 SHR SWAP1 DUP3 AND DUP1 PUSH2 0x1603 JUMPI PUSH1 0x7F DUP3 AND SWAP2 POP JUMPDEST PUSH1 0x20 DUP3 LT DUP2 SUB PUSH2 0x1623 JUMPI PUSH4 0x4E487B71 PUSH1 0xE0 SHL PUSH1 0x0 MSTORE PUSH1 0x22 PUSH1 0x4 MSTORE PUSH1 0x24 PUSH1 0x0 REVERT JUMPDEST POP SWAP2 SWAP1 POP JUMP JUMPDEST PUSH4 0x4E487B71 PUSH1 0xE0 SHL PUSH1 0x0 MSTORE PUSH1 0x32 PUSH1 0x4 MSTORE PUSH1 0x24 PUSH1 0x0 REVERT JUMPDEST PUSH1 0x0 DUP1 DUP4 CALLDATALOAD PUSH1 0x1E NOT DUP5 CALLDATASIZE SUB ADD DUP2 SLT PUSH2 0x1656 JUMPI PUSH1 0x0 DUP1 REVERT JUMPDEST DUP4 ADD DUP1 CALLDATALOAD SWAP2 POP PUSH8 0xFFFFFFFFFFFFFFFF DUP3 GT ISZERO PUSH2 0x1671 JUMPI PUSH1 0x0 DUP1 REVERT JUMPDEST PUSH1 0x20 ADD SWAP2 POP CALLDATASIZE DUP2 SWAP1 SUB DUP3 SGT ISZERO PUSH2 0x1366 JUMPI PUSH1 0x0 DUP1 REVERT JUMPDEST PUSH4 0x4E487B71 PUSH1 0xE0 SHL PUSH1 0x0 MSTORE PUSH1 0x11 PUSH1 0x4 MSTORE PUSH1 0x24 PUSH1 0x0 REVERT JUMPDEST DUP2 DUP2 SUB DUP2 DUP2 GT ISZERO PUSH2 0x16AF JUMPI PUSH2 0x16AF PUSH2 0x1686 JUMP JUMPDEST SWAP3 SWAP2 POP POP JUMP JUMPDEST PUSH1 0x1F DUP3 GT ISZERO PUSH2 0x1203 JUMPI DUP1 PUSH1 0x0 MSTORE PUSH1 0x20 PUSH1 0x0 KECCAK256 PUSH1 0x1F DUP5 ADD PUSH1 0x5 SHR DUP2 ADD PUSH1 0x20 DUP6 LT ISZERO PUSH2 0x16DC JUMPI POP DUP1 JUMPDEST PUSH1 0x1F DUP5 ADD PUSH1 0x5 SHR DUP3 ADD SWAP2 POP JUMPDEST DUP2 DUP2 LT ISZERO PUSH2 0x16FC JUMPI PUSH1 0x0 DUP2 SSTORE PUSH1 0x1 ADD PUSH2 0x16E8 JUMP JUMPDEST POP POP POP POP POP JUMP JUMPDEST DUP2 MLOAD PUSH8 0xFFFFFFFFFFFFFFFF DUP2 GT ISZERO PUSH2 0x171D JUMPI PUSH2 0x171D PUSH2 0x14EA JUMP JUMPDEST PUSH2 0x1731 DUP2 PUSH2 0x172B DUP5 SLOAD PUSH2 0x15EF JUMP JUMPDEST DUP5 PUSH2 0x16B5 JUMP JUMPDEST PUSH1 0x20 PUSH1 0x1F DUP3 GT PUSH1 0x1 DUP2 EQ PUSH2 0x1765 JUMPI PUSH1 0x0 DUP4 ISZERO PUSH2 0x174D JUMPI POP DUP5 DUP3 ADD MLOAD JUMPDEST PUSH1 0x0 NOT PUSH1 0x3 DUP6 SWAP1 SHL SHR NOT AND PUSH1 0x1 DUP5 SWAP1 SHL OR DUP5 SSTORE PUSH2 0x16FC JUMP JUMPDEST PUSH1 0x0 DUP5 DUP2 MSTORE PUSH1 0x20 DUP2 KECCAK256 PUSH1 0x1F NOT DUP6 AND SWAP2 JUMPDEST DUP3 DUP2 LT ISZERO PUSH2 0x1795 JUMPI DUP8 DUP6 ADD MLOAD DUP3 SSTORE PUSH1 0x20 SWAP5 DUP6 ADD SWAP5 PUSH1 0x1 SWAP1 SWAP3 ADD SWAP2 ADD PUSH2 0x1775 JUMP JUMPDEST POP DUP5 DUP3 LT ISZERO PUSH2 0x17B3 JUMPI DUP7 DUP5 ADD MLOAD PUSH1 0x0 NOT PUSH1 0x3 DUP8 SWAP1 SHL PUSH1 0xF8 AND SHR NOT AND DUP2 SSTORE JUMPDEST POP POP POP POP PUSH1 0x1 SWAP1 DUP2 SHL ADD SWAP1 SSTORE POP JUMP JUMPDEST DUP2 DUP4 MSTORE DUP2 DUP2 PUSH1 0x20 DUP6 ADD CALLDATACOPY POP PUSH1 0x0 DUP3 DUP3 ADD PUSH1 0x20 SWAP1 DUP2 ADD SWAP2 SWAP1 SWAP2 MSTORE PUSH1 0x1F SWAP1 SWAP2 ADD PUSH1 0x1F NOT AND SWAP1 SWAP2 ADD ADD SWAP1 JUMP JUMPDEST PUSH1 0xA0 DUP2 MSTORE PUSH1 0x0 PUSH2 0x17FF PUSH1 0xA0 DUP4 ADD DUP8 DUP10 PUSH2 0x17C2 JUMP JUMPDEST DUP6 PUSH1 0x20 DUP5 ADD MSTORE DUP5 PUSH1 0x40 DUP5 ADD MSTORE DUP4 PUSH1 0x60 DUP5 ADD MSTORE DUP3 DUP2 SUB PUSH1 0x80 DUP5 ADD MSTORE PUSH2 0x1837 DUP2 PUSH1 0x7 DUP2 MSTORE PUSH7 0x50454E44494E47 PUSH1 0xC8 SHL PUSH1 0x20 DUP3 ADD MSTORE PUSH1 0x40 ADD SWAP1 JUMP JUMPDEST SWAP9 SWAP8 POP POP POP POP POP POP POP POP JUMP JUMPDEST DUP1 DUP3 ADD DUP1 DUP3 GT ISZERO PUSH2 0x16AF JUMPI PUSH2 0x16AF PUSH2 0x1686 JUMP JUMPDEST PUSH1 0x0 PUSH1 0x20 DUP3 DUP5 SUB SLT ISZERO PUSH2 0x1868 JUMPI PUSH1 0x0 DUP1 REVERT JUMPDEST DUP2 MLOAD DUP1 ISZERO ISZERO DUP2 EQ PUSH2 0x1878 JUMPI PUSH1 0x0 DUP1 REVERT JUMPDEST SWAP4 SWAP3 POP POP POP JUMP JUMPDEST DUP2 DUP4 MSTORE PUSH1 0x0 PUSH1 0x1 PUSH1 0x1 PUSH1 0xFB SHL SUB DUP4 GT ISZERO PUSH2 0x1898 JUMPI PUSH1 0x0 DUP1 REVERT JUMPDEST DUP3 PUSH1 0x5 SHL DUP1 DUP4 PUSH1 0x20 DUP8 ADD CALLDATACOPY SWAP4 SWAP1 SWAP4 ADD PUSH1 0x20 ADD SWAP4 SWAP3 POP POP POP JUMP JUMPDEST PUSH1 0x1 PUSH1 0x1 PUSH1 0xA0 SHL SUB DUP12 AND DUP2 MSTORE PUSH1 0xC0 PUSH1 0x20 DUP3 ADD DUP2 SWAP1 MSTORE PUSH1 0x0 SWAP1 PUSH2 0x18D6 SWAP1 DUP4 ADD DUP12 DUP14 PUSH2 0x187F JUMP JUMPDEST DUP3 DUP2 SUB PUSH1 0x40 DUP5 ADD MSTORE PUSH2 0x18E9 DUP2 DUP11 DUP13 PUSH2 0x187F JUMP JUMPDEST DUP4 DUP2 SUB PUSH1 0x60 DUP6 ADD MSTORE DUP8 DUP2 MSTORE SWAP1 POP PUSH1 0x20 DUP1 DUP3 ADD SWAP1 PUSH1 0x5 DUP10 SWAP1 SHL DUP4 ADD ADD DUP10 PUSH1 0x0 CALLDATASIZE DUP3 SWAP1 SUB PUSH1 0x1E NOT ADD JUMPDEST DUP12 DUP3 LT ISZERO PUSH2 0x1981 JUMPI DUP6 DUP5 SUB PUSH1 0x1F NOT ADD DUP6 MSTORE DUP3 CALLDATALOAD DUP2 DUP2 SLT PUSH2 0x192F JUMPI PUSH1 0x0 DUP1 REVERT JUMPDEST DUP14 ADD PUSH1 0x20 DUP2 ADD SWAP1 CALLDATALOAD PUSH8 0xFFFFFFFFFFFFFFFF DUP2 GT ISZERO PUSH2 0x194C JUMPI PUSH1 0x0 DUP1 REVERT JUMPDEST DUP1 CALLDATASIZE SUB DUP3 SGT ISZERO PUSH2 0x195B JUMPI PUSH1 0x0 DUP1 REVERT JUMPDEST PUSH2 0x1966 DUP7 DUP3 DUP5 PUSH2 0x17C2 JUMP JUMPDEST SWAP6 POP POP POP PUSH1 0x20 DUP4 ADD SWAP3 POP PUSH1 0x20 DUP6 ADD SWAP5 POP PUSH1 0x1 DUP3 ADD SWAP2 POP PUSH2 0x1910 JUMP JUMPDEST POP POP POP DUP5 DUP2 SUB PUSH1 0x80 DUP7 ADD MSTORE PUSH2 0x1997 DUP2 DUP9 DUP11 PUSH2 0x187F JUMP JUMPDEST SWAP4 POP POP POP POP DUP3 PUSH1 0xA0 DUP4 ADD MSTORE SWAP12 SWAP11 POP POP POP POP POP POP POP POP POP POP POP JUMP JUMPDEST PUSH1 0xA0 DUP2 MSTORE PUSH1 0x0 PUSH2 0x19C4 PUSH1 0xA0 DUP4 ADD DUP8 PUSH2 0x129C JUMP JUMPDEST DUP6 PUSH1 0x20 DUP5 ADD MSTORE DUP5 PUSH1 0x40 DUP5 ADD MSTORE DUP4 PUSH1 0x60 DUP5 ADD MSTORE DUP3 DUP2 SUB PUSH1 0x80 DUP5 ADD MSTORE PUSH2 0x19FC DUP2 PUSH1 0x7 DUP2 MSTORE PUSH7 0x50454E44494E47 PUSH1 0xC8 SHL PUSH1 0x20 DUP3 ADD MSTORE PUSH1 0x40 ADD SWAP1 JUMP JUMPDEST SWAP8 SWAP7 POP POP POP POP POP POP POP JUMP INVALID LOG2 PUSH5 0x6970667358 0x22 SLT KECCAK256 DUP3 0xA7 0xF6 PUSH1 0x76 SWAP12 PUSH28 0xBC28E2D6E0A5C7A5765B8420BF52317AC5914480D11D4BADF564736F PUSH13 0x634300081C0033000000000000 "
        },
        "methodIdentifiers": {
          "_createBulkGifts(address,uint256[],uint256[],string[],bytes32[],bytes32)": "9e85dad9",
          "claimGift(bytes32)": "9617cff5",
          "createBulkGifts(address,uint256[],uint256[],string[],bytes32[],bytes32)": "b0a1ae00",
          "createGift(address,uint256,uint256,string,bytes32,bytes32)": "fd7a1e0b",
          "gifts(bytes32)": "da138e12",
          "reclaimGift(bytes32)": "ec2de8c1",
          "validateGift(bytes32)": "957b8610"
        }
      }
    }
  }
}